{
  "_format": "hh-sol-artifact-1",
  "contractName": "GraduationCertificate",
  "sourceName": "contracts/GraduationCertificate.sol",
  "abi": [
    {
      "anonymous": false,
      "inputs": [
        {
          "indexed": false,
          "internalType": "string",
          "name": "studentName",
          "type": "string"
        },
        {
          "indexed": false,
          "internalType": "string",
          "name": "certificateHash",
          "type": "string"
        },
        {
          "indexed": false,
          "internalType": "uint256",
          "name": "timestamp",
          "type": "uint256"
        }
      ],
      "name": "CertificateAdded",
      "type": "event"
    },
    {
      "inputs": [
        {
          "internalType": "string",
          "name": "_studentName",
          "type": "string"
        },
        {
          "internalType": "string",
          "name": "_certificateHash",
          "type": "string"
        }
      ],
      "name": "addCertificate",
      "outputs": [],
      "stateMutability": "nonpayable",
      "type": "function"
    },
    {
      "inputs": [
        {
          "internalType": "string",
          "name": "",
          "type": "string"
        }
      ],
      "name": "certificates",
      "outputs": [
        {
          "internalType": "string",
          "name": "studentName",
          "type": "string"
        },
        {
          "internalType": "string",
          "name": "certificateHash",
          "type": "string"
        },
        {
          "internalType": "uint256",
          "name": "timestamp",
          "type": "uint256"
        }
      ],
      "stateMutability": "view",
      "type": "function"
    },
    {
      "inputs": [
        {
          "internalType": "string",
          "name": "_certificateHash",
          "type": "string"
        }
      ],
      "name": "verifyCertificate",
      "outputs": [
        {
          "internalType": "string",
          "name": "",
          "type": "string"
        },
        {
          "internalType": "uint256",
          "name": "",
          "type": "uint256"
        }
      ],
      "stateMutability": "view",
      "type": "function"
    }
  ],
  "bytecode": "0x608060405234801561001057600080fd5b50610a25806100206000396000f3fe608060405234801561001057600080fd5b50600436106100415760003560e01c80638b23d875146100465780638f2b91ea14610077578063e24f2ce7146100a9575b600080fd5b610060600480360381019061005b9190610608565b6100c5565b60405161006e92919061080a565b60405180910390f35b610091600480360381019061008c9190610608565b61027f565b6040516100a0939291906107c5565b60405180910390f35b6100c360048036038101906100be9190610649565b6103cf565b005b60606000806000846040516100da91906107ae565b90815260200160405180910390206040518060600160405290816000820180546101039061094e565b80601f016020809104026020016040519081016040528092919081815260200182805461012f9061094e565b801561017c5780601f106101515761010080835404028352916020019161017c565b820191906000526020600020905b81548152906001019060200180831161015f57829003601f168201915b505050505081526020016001820180546101959061094e565b80601f01602080910402602001604051908101604052809291908181526020018280546101c19061094e565b801561020e5780601f106101e35761010080835404028352916020019161020e565b820191906000526020600020905b8154815290600101906020018083116101f157829003601f168201915b50505050508152602001600282015481525050905060008160200151511161026b576040517f08c379a00000000000000000000000000000000000000000000000000000000081526004016102629061083a565b60405180910390fd5b806000015181604001519250925050915091565b6000818051602081018201805184825260208301602085012081835280955050505050506000915090508060000180546102b89061094e565b80601f01602080910402602001604051908101604052809291908181526020018280546102e49061094e565b80156103315780601f1061030657610100808354040283529160200191610331565b820191906000526020600020905b81548152906001019060200180831161031457829003601f168201915b5050505050908060010180546103469061094e565b80601f01602080910402602001604051908101604052809291908181526020018280546103729061094e565b80156103bf5780601f10610394576101008083540402835291602001916103bf565b820191906000526020600020905b8154815290600101906020018083116103a257829003601f168201915b5050505050908060020154905083565b600080826040516103e091906107ae565b908152602001604051809103902060010180546103fc9061094e565b90501461043e576040517f08c379a00000000000000000000000000000000000000000000000000000000081526004016104359061085a565b60405180910390fd5b60405180606001604052808381526020018281526020014281525060008260405161046991906107ae565b908152602001604051809103902060008201518160000190805190602001906104939291906104fd565b5060208201518160010190805190602001906104b09291906104fd565b50604082015181600201559050507fe985e28caa301fce4a9731caaa48ca22260bfde4e71060a8d129c865075c465a8282426040516104f1939291906107c5565b60405180910390a15050565b8280546105099061094e565b90600052602060002090601f01602090048101928261052b5760008555610572565b82601f1061054457805160ff1916838001178555610572565b82800160010185558215610572579182015b82811115610571578251825591602001919060010190610556565b5b50905061057f9190610583565b5090565b5b8082111561059c576000816000905550600101610584565b5090565b60006105b36105ae846108ab565b61087a565b9050828152602081018484840111156105cb57600080fd5b6105d684828561090c565b509392505050565b600082601f8301126105ef57600080fd5b81356105ff8482602086016105a0565b91505092915050565b60006020828403121561061a57600080fd5b600082013567ffffffffffffffff81111561063457600080fd5b610640848285016105de565b91505092915050565b6000806040838503121561065c57600080fd5b600083013567ffffffffffffffff81111561067657600080fd5b610682858286016105de565b925050602083013567ffffffffffffffff81111561069f57600080fd5b6106ab858286016105de565b9150509250929050565b60006106c0826108db565b6106ca81856108e6565b93506106da81856020860161091b565b6106e3816109de565b840191505092915050565b60006106f9826108db565b61070381856108f7565b935061071381856020860161091b565b80840191505092915050565b600061072c6015836108e6565b91507f4365727469666963617465206e6f7420666f756e6400000000000000000000006000830152602082019050919050565b600061076c601a836108e6565b91507f436572746966696361746520616c7265616479206578697374730000000000006000830152602082019050919050565b6107a881610902565b82525050565b60006107ba82846106ee565b915081905092915050565b600060608201905081810360008301526107df81866106b5565b905081810360208301526107f381856106b5565b9050610802604083018461079f565b949350505050565b6000604082019050818103600083015261082481856106b5565b9050610833602083018461079f565b9392505050565b600060208201905081810360008301526108538161071f565b9050919050565b600060208201905081810360008301526108738161075f565b9050919050565b6000604051905081810181811067ffffffffffffffff821117156108a1576108a06109af565b5b8060405250919050565b600067ffffffffffffffff8211156108c6576108c56109af565b5b601f19601f8301169050602081019050919050565b600081519050919050565b600082825260208201905092915050565b600081905092915050565b6000819050919050565b82818337600083830152505050565b60005b8381101561093957808201518184015260208101905061091e565b83811115610948576000848401525b50505050565b6000600282049050600182168061096657607f821691505b6020821081141561097a57610979610980565b5b50919050565b7f4e487b7100000000000000000000000000000000000000000000000000000000600052602260045260246000fd5b7f4e487b7100000000000000000000000000000000000000000000000000000000600052604160045260246000fd5b6000601f19601f830116905091905056fea264697066735822122035e0fcfad346f72d6be35111478068e118efaf1a0275b73ddb3a30b87f3a551c64736f6c63430008000033",
  "linkReferences": {},
  "deployedLinkReferences": {}
}